{
  "_format": "hh-sol-artifact-1",
  "contractName": "ImageStorage",
  "sourceName": "contracts/ImageStorage.sol",
  "abi": [
    {
      "anonymous": false,
      "inputs": [
        {
          "indexed": true,
          "internalType": "uint256",
          "name": "imageId",
          "type": "uint256"
        },
        {
          "indexed": false,
          "internalType": "string",
          "name": "imageUrl",
          "type": "string"
        },
        {
          "indexed": true,
          "internalType": "address",
          "name": "owner",
          "type": "address"
        }
      ],
      "name": "ImageUploaded",
      "type": "event"
    },
    {
      "anonymous": false,
      "inputs": [
        {
          "indexed": true,
          "internalType": "uint256",
          "name": "imageId",
          "type": "uint256"
        },
        {
          "indexed": true,
          "internalType": "address",
          "name": "sender",
          "type": "address"
        },
        {
          "indexed": false,
          "internalType": "uint256",
          "name": "amount",
          "type": "uint256"
        }
      ],
      "name": "TipSent",
      "type": "event"
    },
    {
      "inputs": [
        {
          "internalType": "uint256",
          "name": "_imageId",
          "type": "uint256"
        }
      ],
      "name": "getImage",
      "outputs": [
        {
          "internalType": "string",
          "name": "",
          "type": "string"
        },
        {
          "internalType": "address",
          "name": "",
          "type": "address"
        },
        {
          "internalType": "uint256",
          "name": "",
          "type": "uint256"
        }
      ],
      "stateMutability": "view",
      "type": "function"
    },
    {
      "inputs": [],
      "name": "getTotalImages",
      "outputs": [
        {
          "internalType": "uint256",
          "name": "",
          "type": "uint256"
        }
      ],
      "stateMutability": "view",
      "type": "function"
    },
    {
      "inputs": [],
      "name": "imageCount",
      "outputs": [
        {
          "internalType": "uint256",
          "name": "",
          "type": "uint256"
        }
      ],
      "stateMutability": "view",
      "type": "function"
    },
    {
      "inputs": [
        {
          "internalType": "uint256",
          "name": "",
          "type": "uint256"
        }
      ],
      "name": "images",
      "outputs": [
        {
          "internalType": "string",
          "name": "imageUrl",
          "type": "string"
        },
        {
          "internalType": "address",
          "name": "owner",
          "type": "address"
        },
        {
          "internalType": "uint256",
          "name": "tipAmount",
          "type": "uint256"
        }
      ],
      "stateMutability": "view",
      "type": "function"
    },
    {
      "inputs": [
        {
          "internalType": "uint256",
          "name": "_imageId",
          "type": "uint256"
        }
      ],
      "name": "tipCreator",
      "outputs": [],
      "stateMutability": "payable",
      "type": "function"
    },
    {
      "inputs": [
        {
          "internalType": "string",
          "name": "_imageUrl",
          "type": "string"
        }
      ],
      "name": "uploadImage",
      "outputs": [],
      "stateMutability": "nonpayable",
      "type": "function"
    }
  ],
  "bytecode": "0x6080604052348015600f57600080fd5b506108178061001f6000396000f3fe6080604052600436106100555760003560e01c80632607aafa1461005a578063848564821461009257806392053b63146100b25780639a4661f8146100d6578063b97be95e146100eb578063e740c8a014610100575b600080fd5b34801561006657600080fd5b5061007a6100753660046104db565b610120565b6040516100899392919061053a565b60405180910390f35b34801561009e57600080fd5b5061007a6100ad3660046104db565b610261565b3480156100be57600080fd5b506100c860015481565b604051908152602001610089565b3480156100e257600080fd5b506001546100c8565b6100fe6100f93660046104db565b610315565b005b34801561010c57600080fd5b506100fe61011b36600461057e565b61040a565b606060008060008411801561013757506001548411155b6101805760405162461bcd60e51b815260206004820152601560248201527424b6b0b3b2903237b2b9903737ba1032bc34b9ba1760591b60448201526064015b60405180910390fd5b6000848152602081905260408082208151606081019092528054829082906101a790610637565b80601f01602080910402602001604051908101604052809291908181526020018280546101d390610637565b80156102205780601f106101f557610100808354040283529160200191610220565b820191906000526020600020905b81548152906001019060200180831161020357829003601f168201915b505050918352505060018201546001600160a01b03166020808301919091526002909201546040918201528251918301519201519097919650945092505050565b60006020819052908152604090208054819061027c90610637565b80601f01602080910402602001604051908101604052809291908181526020018280546102a890610637565b80156102f55780601f106102ca576101008083540402835291602001916102f5565b820191906000526020600020905b8154815290600101906020018083116102d857829003601f168201915b50505050600183015460029093015491926001600160a01b031691905083565b60008111801561032757506001548111155b61036b5760405162461bcd60e51b815260206004820152601560248201527424b6b0b3b2903237b2b9903737ba1032bc34b9ba1760591b6044820152606401610177565b60008181526020819052604081206002810180549192349261038e908490610687565b909155505060018101546040516001600160a01b03909116903480156108fc02916000818181858888f193505050501580156103ce573d6000803e3d6000fd5b50604051348152339083907faa7ac8ddacc291d916d6cf40358c9fc2d5d375d14f36e3ffb346a8eb30a162099060200160405180910390a35050565b6001805490600061041a836106a0565b90915550506040805160608101825282815233602080830191909152600082840181905260015481529081905291909120815181906104599082610708565b5060208201518160010160006101000a8154816001600160a01b0302191690836001600160a01b0316021790555060408201518160020155905050336001600160a01b03166001547f3543a6878b0a0f9ec87fe453b8f783f8cee19541e78b2c83d591c7b1228b62c5836040516104d091906107c7565b60405180910390a350565b6000602082840312156104ed57600080fd5b5035919050565b6000815180845260005b8181101561051a576020818501810151868301820152016104fe565b506000602082860101526020601f19601f83011685010191505092915050565b60608152600061054d60608301866104f4565b6001600160a01b039490941660208301525060400152919050565b634e487b7160e01b600052604160045260246000fd5b60006020828403121561059057600080fd5b813567ffffffffffffffff8111156105a757600080fd5b8201601f810184136105b857600080fd5b803567ffffffffffffffff8111156105d2576105d2610568565b604051601f8201601f19908116603f0116810167ffffffffffffffff8111828210171561060157610601610568565b60405281815282820160200186101561061957600080fd5b81602084016020830137600091810160200191909152949350505050565b600181811c9082168061064b57607f821691505b60208210810361066b57634e487b7160e01b600052602260045260246000fd5b50919050565b634e487b7160e01b600052601160045260246000fd5b8082018082111561069a5761069a610671565b92915050565b6000600182016106b2576106b2610671565b5060010190565b601f82111561070357806000526020600020601f840160051c810160208510156106e05750805b601f840160051c820191505b8181101561070057600081556001016106ec565b50505b505050565b815167ffffffffffffffff81111561072257610722610568565b610736816107308454610637565b846106b9565b6020601f82116001811461076a57600083156107525750848201515b600019600385901b1c1916600184901b178455610700565b600084815260208120601f198516915b8281101561079a578785015182556020948501946001909201910161077a565b50848210156107b85786840151600019600387901b60f8161c191681555b50505050600190811b01905550565b6020815260006107da60208301846104f4565b939250505056fea26469706673582212207c02dfac62fff297d7e9ed00e275b808c33fa869d47e9632431d1fe12695ce7f64736f6c634300081b0033",
  "linkReferences": {},
  "deployedLinkReferences": {}
}